{
  "contractName": "Election",
  "abi": [
    {
      "inputs": [
        {
          "internalType": "uint256",
          "name": "",
          "type": "uint256"
        }
      ],
      "name": "arr",
      "outputs": [
        {
          "internalType": "string",
          "name": "prn_no",
          "type": "string"
        },
        {
          "internalType": "string",
          "name": "name",
          "type": "string"
        },
        {
          "internalType": "uint256",
          "name": "votecount",
          "type": "uint256"
        }
      ],
      "stateMutability": "view",
      "type": "function",
      "constant": true
    },
    {
      "inputs": [
        {
          "internalType": "string",
          "name": "",
          "type": "string"
        }
      ],
      "name": "candidate_added",
      "outputs": [
        {
          "internalType": "bool",
          "name": "",
          "type": "bool"
        }
      ],
      "stateMutability": "view",
      "type": "function",
      "constant": true
    },
    {
      "inputs": [],
      "name": "candidatesCount",
      "outputs": [
        {
          "internalType": "uint256",
          "name": "",
          "type": "uint256"
        }
      ],
      "stateMutability": "view",
      "type": "function",
      "constant": true
    },
    {
      "inputs": [
        {
          "internalType": "string",
          "name": "",
          "type": "string"
        }
      ],
      "name": "mapCan",
      "outputs": [
        {
          "internalType": "int256",
          "name": "",
          "type": "int256"
        }
      ],
      "stateMutability": "view",
      "type": "function",
      "constant": true
    },
    {
      "inputs": [],
      "name": "no_of_voters",
      "outputs": [
        {
          "internalType": "uint256",
          "name": "",
          "type": "uint256"
        }
      ],
      "stateMutability": "view",
      "type": "function",
      "constant": true
    },
    {
      "inputs": [
        {
          "internalType": "string",
          "name": "",
          "type": "string"
        }
      ],
      "name": "votedornot",
      "outputs": [
        {
          "internalType": "bool",
          "name": "",
          "type": "bool"
        }
      ],
      "stateMutability": "view",
      "type": "function",
      "constant": true
    },
    {
      "inputs": [
        {
          "internalType": "string",
          "name": "prn_no",
          "type": "string"
        },
        {
          "internalType": "string",
          "name": "name",
          "type": "string"
        }
      ],
      "name": "addCandidate",
      "outputs": [],
      "stateMutability": "nonpayable",
      "type": "function"
    },
    {
      "inputs": [],
      "name": "getCan",
      "outputs": [
        {
          "components": [
            {
              "internalType": "string",
              "name": "prn_no",
              "type": "string"
            },
            {
              "internalType": "string",
              "name": "name",
              "type": "string"
            },
            {
              "internalType": "uint256",
              "name": "votecount",
              "type": "uint256"
            }
          ],
          "internalType": "struct Election.Candidate[]",
          "name": "",
          "type": "tuple[]"
        }
      ],
      "stateMutability": "view",
      "type": "function",
      "constant": true
    },
    {
      "inputs": [
        {
          "internalType": "string",
          "name": "prn_no",
          "type": "string"
        },
        {
          "internalType": "string",
          "name": "name",
          "type": "string"
        }
      ],
      "name": "addVoter",
      "outputs": [],
      "stateMutability": "nonpayable",
      "type": "function"
    },
    {
      "inputs": [],
      "name": "getVoters",
      "outputs": [
        {
          "components": [
            {
              "internalType": "string",
              "name": "prn_no",
              "type": "string"
            },
            {
              "internalType": "string",
              "name": "name",
              "type": "string"
            },
            {
              "internalType": "bool",
              "name": "voted",
              "type": "bool"
            }
          ],
          "internalType": "struct Election.Voter[]",
          "name": "",
          "type": "tuple[]"
        }
      ],
      "stateMutability": "view",
      "type": "function",
      "constant": true
    },
    {
      "inputs": [
        {
          "internalType": "string",
          "name": "leaders_prn",
          "type": "string"
        },
        {
          "internalType": "string",
          "name": "voters_prn",
          "type": "string"
        }
      ],
      "name": "Vote",
      "outputs": [],
      "stateMutability": "nonpayable",
      "type": "function"
    }
  ],
  "bytecode": "0x6080604052600060055534801561001557600080fd5b50611461806100256000396000f3fe608060405234801561001057600080fd5b50600436106100a95760003560e01c806371e5ee5f1161007157806371e5ee5f14610152578063853671b91461018457806387e8e5a5146101a0578063cdd72253146101be578063ce734c16146101dc578063d815ede21461020c576100a9565b806317072d6b146100ae57806326541b56146100ca5780632d35a8a2146100e65780632e522caf146101045780634e51ca4214610134575b600080fd5b6100c860048036038101906100c39190610ce3565b61023c565b005b6100e460048036038101906100df9190610ce3565b610349565b005b6100ee610497565b6040516100fb9190610d74565b60405180910390f35b61011e60048036038101906101199190610d8f565b61049d565b60405161012b9190610df3565b60405180910390f35b61013c6104d3565b6040516101499190610fbe565b60405180910390f35b61016c6004803603810190610167919061100c565b610660565b60405161017b93929190611083565b60405180910390f35b61019e60048036038101906101999190610ce3565b6107aa565b005b6101a86108de565b6040516101b59190610d74565b60405180910390f35b6101c66108e4565b6040516101d391906111f0565b60405180910390f35b6101f660048036038101906101f19190610d8f565b610a82565b6040516102039190610df3565b60405180910390f35b61022660048036038101906102219190610d8f565b610ab8565b604051610233919061122b565b60405180910390f35b600015156007826040516102509190611282565b908152602001604051809103902060009054906101000a900460ff1615151461027857600080fd5b6001151560048260405161028c9190611282565b908152602001604051809103902060009054906101000a900460ff161515146102b457600080fd5b6001806002846040516102c79190611282565b908152602001604051809103902054815481106102e7576102e6611299565b5b9060005260206000209060030201600201600082825461030791906112f7565b9250508190555060016007826040516103209190611282565b908152602001604051809103902060006101000a81548160ff0219169083151502179055505050565b6000151560038360405161035d9190611282565b908152602001604051809103902060009054906101000a900460ff1615151461038557600080fd5b6000808154809291906103979061134d565b9190505550600160405180606001604052808481526020018381526020016000815250908060018154018082558091505060019003906000526020600020906003020160009091909190915060008201518160000190805190602001906103ff929190610ae6565b50602082015181600101908051906020019061041c929190610ae6565b506040820151816002015550506001808054905061043a9190611396565b60028360405161044a9190611282565b908152602001604051809103902081905550600160038360405161046e9190611282565b908152602001604051809103902060006101000a81548160ff0219169083151502179055505050565b60005481565b6007818051602081018201805184825260208301602085012081835280955050505050506000915054906101000a900460ff1681565b60606001805480602002602001604051908101604052809291908181526020016000905b82821015610657578382906000526020600020906003020160405180606001604052908160008201805461052a906113f9565b80601f0160208091040260200160405190810160405280929190818152602001828054610556906113f9565b80156105a35780601f10610578576101008083540402835291602001916105a3565b820191906000526020600020905b81548152906001019060200180831161058657829003601f168201915b505050505081526020016001820180546105bc906113f9565b80601f01602080910402602001604051908101604052809291908181526020018280546105e8906113f9565b80156106355780601f1061060a57610100808354040283529160200191610635565b820191906000526020600020905b81548152906001019060200180831161061857829003601f168201915b50505050508152602001600282015481525050815260200190600101906104f7565b50505050905090565b6001818154811061067057600080fd5b9060005260206000209060030201600091509050806000018054610693906113f9565b80601f01602080910402602001604051908101604052809291908181526020018280546106bf906113f9565b801561070c5780601f106106e15761010080835404028352916020019161070c565b820191906000526020600020905b8154815290600101906020018083116106ef57829003601f168201915b505050505090806001018054610721906113f9565b80601f016020809104026020016040519081016040528092919081815260200182805461074d906113f9565b801561079a5780601f1061076f5761010080835404028352916020019161079a565b820191906000526020600020905b81548152906001019060200180831161077d57829003601f168201915b5050505050908060020154905083565b600015156004836040516107be9190611282565b908152602001604051809103902060009054906101000a900460ff161515146107e657600080fd5b600560008154809291906107f99061134d565b9190505550600660405180606001604052808481526020018381526020016000151581525090806001815401808255809150506001900390600052602060002090600302016000909190919091506000820151816000019080519060200190610863929190610ae6565b506020820151816001019080519060200190610880929190610ae6565b5060408201518160020160006101000a81548160ff021916908315150217905550505060016004836040516108b59190611282565b908152602001604051809103902060006101000a81548160ff0219169083151502179055505050565b60055481565b60606006805480602002602001604051908101604052809291908181526020016000905b82821015610a79578382906000526020600020906003020160405180606001604052908160008201805461093b906113f9565b80601f0160208091040260200160405190810160405280929190818152602001828054610967906113f9565b80156109b45780601f10610989576101008083540402835291602001916109b4565b820191906000526020600020905b81548152906001019060200180831161099757829003601f168201915b505050505081526020016001820180546109cd906113f9565b80601f01602080910402602001604051908101604052809291908181526020018280546109f9906113f9565b8015610a465780601f10610a1b57610100808354040283529160200191610a46565b820191906000526020600020905b815481529060010190602001808311610a2957829003601f168201915b505050505081526020016002820160009054906101000a900460ff16151515158152505081526020019060010190610908565b50505050905090565b6003818051602081018201805184825260208301602085012081835280955050505050506000915054906101000a900460ff1681565b6002818051602081018201805184825260208301602085012081835280955050505050506000915090505481565b828054610af2906113f9565b90600052602060002090601f016020900481019282610b145760008555610b5b565b82601f10610b2d57805160ff1916838001178555610b5b565b82800160010185558215610b5b579182015b82811115610b5a578251825591602001919060010190610b3f565b5b509050610b689190610b6c565b5090565b5b80821115610b85576000816000905550600101610b6d565b5090565b6000604051905090565b600080fd5b600080fd5b600080fd5b600080fd5b6000601f19601f8301169050919050565b7f4e487b7100000000000000000000000000000000000000000000000000000000600052604160045260246000fd5b610bf082610ba7565b810181811067ffffffffffffffff82111715610c0f57610c0e610bb8565b5b80604052505050565b6000610c22610b89565b9050610c2e8282610be7565b919050565b600067ffffffffffffffff821115610c4e57610c4d610bb8565b5b610c5782610ba7565b9050602081019050919050565b82818337600083830152505050565b6000610c86610c8184610c33565b610c18565b905082815260208101848484011115610ca257610ca1610ba2565b5b610cad848285610c64565b509392505050565b600082601f830112610cca57610cc9610b9d565b5b8135610cda848260208601610c73565b91505092915050565b60008060408385031215610cfa57610cf9610b93565b5b600083013567ffffffffffffffff811115610d1857610d17610b98565b5b610d2485828601610cb5565b925050602083013567ffffffffffffffff811115610d4557610d44610b98565b5b610d5185828601610cb5565b9150509250929050565b6000819050919050565b610d6e81610d5b565b82525050565b6000602082019050610d896000830184610d65565b92915050565b600060208284031215610da557610da4610b93565b5b600082013567ffffffffffffffff811115610dc357610dc2610b98565b5b610dcf84828501610cb5565b91505092915050565b60008115159050919050565b610ded81610dd8565b82525050565b6000602082019050610e086000830184610de4565b92915050565b600081519050919050565b600082825260208201905092915050565b6000819050602082019050919050565b600081519050919050565b600082825260208201905092915050565b60005b83811015610e74578082015181840152602081019050610e59565b83811115610e83576000848401525b50505050565b6000610e9482610e3a565b610e9e8185610e45565b9350610eae818560208601610e56565b610eb781610ba7565b840191505092915050565b610ecb81610d5b565b82525050565b60006060830160008301518482036000860152610eee8282610e89565b91505060208301518482036020860152610f088282610e89565b9150506040830151610f1d6040860182610ec2565b508091505092915050565b6000610f348383610ed1565b905092915050565b6000602082019050919050565b6000610f5482610e0e565b610f5e8185610e19565b935083602082028501610f7085610e2a565b8060005b85811015610fac5784840389528151610f8d8582610f28565b9450610f9883610f3c565b925060208a01995050600181019050610f74565b50829750879550505050505092915050565b60006020820190508181036000830152610fd88184610f49565b905092915050565b610fe981610d5b565b8114610ff457600080fd5b50565b60008135905061100681610fe0565b92915050565b60006020828403121561102257611021610b93565b5b600061103084828501610ff7565b91505092915050565b600082825260208201905092915050565b600061105582610e3a565b61105f8185611039565b935061106f818560208601610e56565b61107881610ba7565b840191505092915050565b6000606082019050818103600083015261109d818661104a565b905081810360208301526110b1818561104a565b90506110c06040830184610d65565b949350505050565b600081519050919050565b600082825260208201905092915050565b6000819050602082019050919050565b6110fd81610dd8565b82525050565b600060608301600083015184820360008601526111208282610e89565b9150506020830151848203602086015261113a8282610e89565b915050604083015161114f60408601826110f4565b508091505092915050565b60006111668383611103565b905092915050565b6000602082019050919050565b6000611186826110c8565b61119081856110d3565b9350836020820285016111a2856110e4565b8060005b858110156111de57848403895281516111bf858261115a565b94506111ca8361116e565b925060208a019950506001810190506111a6565b50829750879550505050505092915050565b6000602082019050818103600083015261120a818461117b565b905092915050565b6000819050919050565b61122581611212565b82525050565b6000602082019050611240600083018461121c565b92915050565b600081905092915050565b600061125c82610e3a565b6112668185611246565b9350611276818560208601610e56565b80840191505092915050565b600061128e8284611251565b915081905092915050565b7f4e487b7100000000000000000000000000000000000000000000000000000000600052603260045260246000fd5b7f4e487b7100000000000000000000000000000000000000000000000000000000600052601160045260246000fd5b600061130282610d5b565b915061130d83610d5b565b9250827fffffffffffffffffffffffffffffffffffffffffffffffffffffffffffffffff03821115611342576113416112c8565b5b828201905092915050565b600061135882610d5b565b91507fffffffffffffffffffffffffffffffffffffffffffffffffffffffffffffffff82141561138b5761138a6112c8565b5b600182019050919050565b60006113a182610d5b565b91506113ac83610d5b565b9250828210156113bf576113be6112c8565b5b828203905092915050565b7f4e487b7100000000000000000000000000000000000000000000000000000000600052602260045260246000fd5b6000600282049050600182168061141157607f821691505b60208210811415611425576114246113ca565b5b5091905056fea26469706673582212200b350054b9929b68b782be3d8b31b4a324e46fbcc61bfb7600ae38e2d2068bcf64736f6c634300080b0033",
  "immutableReferences": {},
  "source": "// SPDX-License-Identifier: MIT\npragma solidity >=0.7.0 <0.9.0;\n\ncontract Election{\n  ////////////// For Adding Leader's ////////////////////\n   struct Candidate{\n       string prn_no;\n       string name;\n       uint votecount;\n   }\n   uint public candidatesCount;//count of leaders\n   Candidate[] public arr;//leaders(in the form of struct candidate) array\n   \n   mapping(string => int)public mapCan;\n   mapping(string => bool)public candidate_added;//to check presence of candidate\n\n   function addCandidate(string memory prn_no,string memory name)public{\n       require(candidate_added[prn_no]==false);\n       candidatesCount++;\n       arr.push(Candidate(prn_no,name,0));\n       mapCan[prn_no] = int(arr.length-1); \n       candidate_added[prn_no]=true;\n   }\n   //to get arr\n   function getCan()public view returns(Candidate[] memory){\n     return arr;\n   }\n\n   //////////////// For adding Voters /////////////////////\n   struct Voter{\n     string prn_no;\n     string name;\n     bool voted;\n   }\n   mapping(string => bool) voter_presence;\n   uint public no_of_voters=0;\n   Voter[] private arr1;\n  \n   function addVoter(string memory prn_no,string memory name)public{\n     require(voter_presence[prn_no]==false);\n     no_of_voters++;\n     arr1.push(Voter(prn_no,name,false));\n     voter_presence[prn_no] = true;\n   }\n   function getVoters()public view returns(Voter[] memory){\n     return arr1;\n   }\n   //////////////// Voting //////////////////////////\n    \n    mapping(string => bool)public votedornot;\n\n    function Vote(string memory leaders_prn,string memory voters_prn)public{\n     require(votedornot[voters_prn] == false);\n     require(voter_presence[voters_prn] == true);\n\n     arr[uint(mapCan[leaders_prn])].votecount+=1;\n     votedornot[voters_prn] = true;   \n    }\n}",
  "sourcePath": "F:\\blockchain\\sm_d\\frontend\\contracts\\Election.sol",
  "compiler": {
    "name": "solc",
    "version": "0.8.11+commit.d7f03943.Emscripten.clang"
  },
  "schemaVersion": "3.4.3",
  "updatedAt": "2022-02-16T09:50:55.033Z",
  "networkType": "ethereum",
  "devdoc": {
    "kind": "dev",
    "methods": {},
    "version": 1
  },
  "userdoc": {
    "kind": "user",
    "methods": {},
    "version": 1
  }
}